:030000000208F6FD
:0C08F600787FE4F6D8FD75812002093DF2
:0F0AA400CAC7B7F1D3F6B5BDD5CFB0ADA3BA0071
:040AB300021B594E7B
:100A5900E4F580C2B5D2B6D2B47F01FE120A1CE514
:080A690080339200C2B4A20028
:010A71002262
:1009E400D2B77F34120A727F057E00120A1C7F3050
:1009F400120A727F057E00120A1C7F0C120A727F93
:100A0400057E00120A1C7F01120A727F057E000215
:020A14000A1CBA
:100A72008F19120A5940FBC2B5C2B6C2B485198099
:090A8200120A18120A16C2B4226D
:100A8B008F19120A5940FBD2B5C2B6C2B485198070
:090A9B00120A18120A16C2B42254
:100A3900EF70047F808013BF01047F90800CBF0298
:100A4900047F888005BF03027F98EF2DFF020A7299
:060A1600D2B47F017E0056
:0A0A1C00EF1FAC0670011E4C6012C3
:100A2600E4F51AE51AC394FA50EC00000000051A22
:020A360080F14D
:010A3800229B
:10098200E4F508F509780A7C00FD7BFF7A0A79A470
:10099200FE7F0F1208D07F907E01120A1C1209E41A
:1009A200E4FDFF120A39740A2509F8E6FF600D1208
:1009B2000A8B0509E50970EE050880EA7FF47E01DD
:1009C200120A1C7D07E4FF120A39309007AF1C128D
:1009D2000A8B80EFAF1B120A8B7FE87E03120A1C80
:0209E20080E1B2
:10090200020982E493A3F8E493A34003F68001F280
:1009120008DFF48029E493A3F85407240CC8C333F6
:10092200C4540F4420C8834004F456800146F6DFC5
:10093200E4800B0102040810204080900AB3E47E98
:10094200019360BCA3FF543F30E509541FFEE493BA
:10095200A360010ECF54C025E060A840B8E493A381
:10096200FAE493A3F8E493A3C8C582C8CAC583CAAC
:10097200F0A3C8C582C8CAC583CADFE9DEE780BE64
:010AB700003E
:10080000E709F608DFFA8046E709F208DFFA803EDA
:1008100088828C83E709F0A3DFFA8032E309F608C7
:10082000DFFA8078E309F208DFFA807088828C832F
:10083000E309F0A3DFFA806489828A83E0A3F608E3
:10084000DFFA805889828A83E0A3F208DFFA804CBD
:1008500080D280FA80C680D4806980F28033801094
:1008600080A680EA809A80A880DA80E280CA8033FD
:1008700089828A83ECFAE493A3C8C582C8CCC58375
:10088000CCF0A3C8C582C8CCC583CCDFE9DEE78045
:100890000D89828A83E493A3F608DFF9ECFAA9F0C4
:1008A000EDFB2289828A83ECFAE0A3C8C582C8CC1A
:1008B000C583CCF0A3C8C582C8CCC583CCDFEADE33
:1008C000E880DB89828A83E493A3F208DFF980CC95
:1008D00088F0EF60010E4E60C388F0ED2402B4048E
:1008E0000050B9F582EB2402B4040050AF23234535
:0608F00082239008507302
:00000001FF
