:0300000002145493
:0C145400787FE4F6D8FD75812102149B1E
:0617B60025362E3266000C
:1015C000450011FD0000010051001C303132333460
:1015D0003536373839616263646566006020002DF6
:1015E000B5B1C7B0CEC2B6C8000000000000000010
:1015F00000000000000000000000000000000000EB
:101600004500167130303700510000202020202086
:101610002020202020202020202020004A0052B519
:09162000B1C7B0CEC2B6C83A0051
:08165C00AF058F807F017E00C5
:0A166400EF1FAC0670011E4C60176A
:10166E00E4900074F0900074E0C394FA50E8000027
:07167E000000E004F080EE23
:011685002242
:10177300E4F580C2B5D2B6D2B47F01FE121664E599
:0817830080339200C2B4A20001
:01178B00223B
:10173F00AD0712177340FBC2B5C2B6C2B400001298
:0A174F00165CD2B4121660C2B42278
:0F16AE00120D67741C2FF58274003EF583E0FF68
:1016BD00AD0712177340FBD2B5C2B6C2B412165C99
:0816CD00D2B4121660C2B4226F
:10162A00D2B77F3412173F7F057E001216647F30CF
:10163A0012173F7F057E001216647F0C12173F7F38
:10164A00057E001216647F0112173F7F057E000295
:02165A00166414
:1016FC00EF70047F808016EFB401047F90800EEFB2
:10170C00B402047F888006EFB403027F98EF2DFFAC
:03171C0002173F72
:0B17AB00EF1FAC0670011E4C70F62210
:10168600E4FDD2A47F40FE1217ABC2A47F807E0287
:101696001217ABD2A47F707E001217ABA2A4E4335C
:0816A600FD7FA07E000217ABDE
:10171F00E4FB7D08C2A4EBC313FBD2A430A40344A3
:0F172F0080FB7F207E001217ABDDE9AF037E0049
:01173E002288
:02175900AD07DA
:10175B007B08C2A4ED1392A47F287E001217ABD294
:07176B00A4EDC313FDDBEB4D
:011772002254
:1014E000E4FAFFFDFC90006F120DD6000000001220
:1014F00016867FCC1217597F441217591216867F11
:10150000CC1217597FBE12175912171FAA071217AC
:101510001FAD07EDFCEAFDE4120AA3E4FBFA7980B3
:10152000783D1208F890006F120DCAE4FFFE7D208E
:101530007C4190006FE0F8A3E0F9A3E0FAA3E0FBA0
:0F1540001208F8E4FBFAF9783F120807120ADCE8
:01154F002279
:0F179C007598D8758920E4F587758DFDD28E225A
:08178C00FE6F900073F0AF0640
:081794008F993099FDC29922E2
:0F15500090006FEBF0A3EAF0A3E9F0A3EDF0FF3A
:10155F00E4FDA3F0EF2403900013F0900073E0FF7D
:10156F0074112DF582E43400F583E012178C7F029D
:10157F007E001216640DEDB405E1E4FD900072E0FB
:10158F00FFEDC39F5023A3E0FF90006FE0FBA3E0AC
:10159F00FAA3E0F98D82758300120D2812178C7F44
:1015AF00027E001216640D80D3900073E0FF0217C5
:0115BF009497
:1012FC00E4900066F0900069F0A3F012162A121622
:10130C00861214E0900067EEF0A3EFF07FF47E01FC
:10131C001216641214E0900067EEF0A3EFF0E4FDF7
:10132C00FF1216FC7E007F0A7D007B017A00795C3F
:10133C00120E4D12179C900069E0FEA3E02452F5AA
:10134C008274003EF583E0FF60131216BD90006AB4
:10135C00E004F070E1900069E004F080D91214E030
:10136C00900067EEF0A3EFF07FF47E01121664128A
:10137C0014E0900067EEF0A3EFF07D05E4FF121689
:10138C00FC900067E0FEA3E0FF7C007D641216AECB
:10139C00900067E0FEA3E0FF7C007D64120D677E89
:1013AC00007F0ACFCDCFCECCCE1216AE7F2E12162A
:1013BC00BD900067E0FEA3E0FF7C007D0A120D6784
:1013CC00741C2DF58274003C1216B9900067E0FC79
:1013DC00A3E0FDE4120AA3E4FBFA79207841120A97
:1013EC000190006B120DCA7F0A7E001216642090C9
:1013FC004D7F0A7E001216642090432091407F0A94
:10140C007E0012166420913690007274FFF0A37463
:10141C0017F0A374B6F090006BE0FCA3E0FDA3E022
:10142C00FEA3E0FF900075120DCA7B017A00793C97
:10143C00120EDE7B017A00792D7D141215507F641B
:08144C007E0012166402136910
:10080000020B48E86480F8E933E83360110460F0D3
:10081000ED33EC337009E8FCE9FDEAFEEBFF22045E
:1008200060DED3EB9FEA9EE99DE8C2E78CF0C2F759
:1008300095F0400CE8CCF8E9CDF9EACEFAEBCFFB25
:10084000120B1385D0F05804700320D5B3E8047060
:10085000075002B2D5020B5292D5EC0460F7E4CCFB
:10086000C0E0C398F8603B94186008400DD0E0FBEE
:10087000020B2AE4FBFAC9FC8028E830E406E4C94C
:10088000FBE4CAFCE830E305E4C9CACBFCE8540742
:100890006010F8C3E913F9EA13FAEB13FBEC13FC4D
:1008A000D8F130F52FC3E49CFCEF9BFFEE9AFEEDF0
:1008B00099FDD0E0FBEF4E4D4C701222DB03020B92
:1008C0004FEC2CFCEF33FFEE33FEED33FDED30E764
:1008D000EB020B2AEF2BFFEE3AFEED39FDD0E0FBE9
:1008E00050130BBB0003020B52ED13FDEE13FEEF92
:0808F00013FFEC13FC020B2ABC
:1008F800EC4D6011E8497017ED33EC3304600DE4FA
:10090800FCFFFEFD22E933E8330470F8020B4812BD
:100918000B1358046009E4CC2481500628500902BE
:100928000B52284003020B4FC0E0EB4A7044B980D9
:1009380006D0E0FB020B3EEF4E701CBD8008EBFFBB
:10094800EAFEE9FD80EBE98DF0A4FEE5F00209E19D
:10095800E9CDF9EAFEEBFFEF89F0A4FCE5F0CE89DA
:10096800F0A42EFFE435F0CD89F0A42DFEE435F097
:100978008067EF4E7005BD80D780C3EF8BF0A4ACC5
:10098800F0EE8BF0A42CFCE435F0F8EF8AF0A42C00
:10099800E5F038FCE433CB8DF0A42CFCE5F03BF813
:1009A800EE8AF0A42CFCE5F038F8E433CF89F0A403
:1009B8002CFCE5F038CF3400CE89F0A42FFFE5F009
:1009C8003EFEE433C98DF0A42EFEE5F039CD8AF061
:1009D800A42FFFE5F03EFEE43DFD33D0E0FB5007D9
:1009E8000BBB000F020B52EC2CFCEF33FFEE33FE77
:0609F800ED33FD020B2AA5
:1009FE00020B52EC5D046005E859047003020B48CB
:100A0E00120B13580460F6EC4860F2EC7004FDFE15
:100A1E00FF22C860DB2481C85009C39860025006CB
:100A2E00020B4F9850CAF582E9294B4A7005AB82EA
:100A3E00020B3E75F0007C1A7880C3EF9BEE9AEDA8
:100A4E0099400DC3EF9BFFEE9AFEED99FDE842F043
:100A5E00DC23ACF0D0E0FFD0E0FED0E0FDAB822096
:100A6E00E7101BEB60BAEC2CFCEF33FFEE33FEED20
:100A7E0033FD020B2AE803F830E705C0F075F000ED
:100A8E00EF2FFFEE33FEED33FD40B830E7C280AA04
:100A9E0075F020800E75F010800575F0087D007ED3
:100AAE00007F003392D530D503120DBCEC334010CD
:100ABE00EF33FFEE33FEED33FDEC33FCD5F0ED22DC
:0E0ACE00E5F0247EA2D513CC92E7CDCEFF2218
:100ADC00EDD2E7CD33EC3392D524814006E4FFFE12
:100AEC00FDFC22FCE4CFCECDCC24E0501174FF8071
:100AFC00EDC3CC13CCCD13CDCE13CECF13CF04700E
:070B0C00F030D5DE020DBC44
:100E7900E5082472F582E43400F583E00508229040
:100E8900006F300703900072E475F001120E07023B
:100E99000D0F2000E97F2ED2008018EF540F249007
:100EA900D43440D4FF30040BEF24BFB41A005003EC
:100EB9002461FFE50960021509050CE50C700205BE
:100EC9000B30070E90006FE475F001120E07EF0268
:100ED9000D550216D57403D2078003E4C207F5083D
:100EE90090006F120E1EE4F509F50BF50CE509608B
:100EF900077F20120EBC80F5750AFFC201C200C22D
:100F090002C203C205C206C208120E88FF700D3064
:100F190007057F00120ECDAF0CAE0B22B4255FC2C0
:100F2900D5C204120E88FF24D0B40A00501A75F0F5
:100F39000A780930D50508B6FF0106C6A426F620A9
:100F4900D5047002D20380D924CFB41A00EF50041B
:100F5900C2E5D2040211BFD20180C6D20080C0D23C
:100F69000280BCD2D580BAD20580B47F20120EBCD3
:100F79002002077401B5090040F1120E79FF120E23
:100F8900BC020EF6D208D2068095120E79FB120E1B
:100F990079FA120E79F94A4B700679BD7A127BFFFC
:100FA90020022EE509602A7E008E82758300120DCB
:100FB9002860060EEE650A70F0C2D5EBC0E0EAC003
:100FC900E0E9C0E0EE121220D0E0F9D0E0FAD0E07A
:100FD900FB120D0FFF60AAEBC0E0EAC0E0E9C0E038
:100FE900120EBCD0E02401F9D0E03400FAD0E0FBC5
:100FF900E50A0460DCD50AD98087D20280A21212E0
:101009000260F7E50A700104120B5DA90A600DE59B
:101019000A600914F50A1212AAEF60F3EA30E7022E
:10102900F404C3995079EAF4250A0430E701E40489
:10103900F50A800D12120260C1EA050A250A120B8F
:101049005DEA90009EF030E701E4250A04D50A0420
:1010590020050114121220E4C0E01212AA90009E89
:10106900E0601320E70714F0120EA4802204F0D0E8
:10107900E014C0E07F00120EA4E50A6007120E9B7F
:10108900150A800B300503120E9BD0E0020EF6D034
:10109900E00480C4121202609EE50A04120B5D90FE
:1010A900009EEAF0E50A20050260010424041212F8
:0110B9002016
:1010BA0074FF04C0E01212AA120EA4E50A20050267
:1010CA006003120E9BD0E0B50AE87F45120EAE907F
:1010DA00009EE07F2B30E7047F2DF404C0E0120E5F
:1010EA00BCD0E075F00A84C0F0120EA5D0E0120E52
:1010FA00A5020EF6791080027908C206C208800895
:10110A00D2D5790A8004790AC2D5E50A047002F5B3
:10111A000AE4FAFDFEFF120E79FC7B082001131285
:10112A000E79FD7B1030000A120E79FE120E79FF3D
:10113A007B20EC3382D592D55013C3E43000069F4E
:10114A00FFE49EFEE42001039DFDE49CFCE4CBF851
:10115A00C201EC700CCFCECDCCE824F8F870F38045
:10116A0017C3EF33FFEE33FEED33FDEC33FCEB3305
:10117A00FB994002FB0FD8E9EB300105F8D0E0C437
:10118A0048B201C0E00AEC4D4E4F78207B0070C295
:10119A00EAB50A0040BCC0E0121222D0F0D0E0202A
:1011AA000104C4C0E0C4B201C0F0120EA5D0F0D54B
:1011BA00F0EB020EF6120E270F935310FE580F642F
:1011CA004C0F604211024F110A44110A490F794328
:1011DA00111055103D46109D4510074712DD500F5E
:1011EA00682D0F6C2E0F8F2B0F70230F8D2012C6B8
:1011FA002A0F284800000F87E50AB4FF03750A067C
:10120A00120E79FC120E79FD120E79FE120E79FF7A
:10121A00900097020B9A790AA2D520031430050987
:10122A00B910020404B9080104A2D520060250012B
:10123A00042002689202B509005034C0E07F2030D1
:10124A0003197F30A20272067205500F121279C278
:10125A0002C206C205C2087F30800F300503E9C00A
:10126A00E0120EBC300503D0E0F9D0E0B509CC306D
:10127A0005177F30B9100C120EBC7F583004077F57
:10128A00788003B90803120EBC3002057F2D020EC6
:10129A00BC7F202008F87F2B2006F322920280CF01
:1012AA007F00B40700500B2497F582E43400F583DD
:1012BA00E0FF22286E756C6C2900D201120E79307B
:1012CA0001F8C201780930D50108F6020F282D501D
:1012DA00434958120E792403B405004001E49012E0
:1012EA00D893120EAD743A120EADD20375090402E8
:0212FA0010FEE4
:100B1300E9D2E7C933E833F892D5EDD2E7CD33EC28
:070B230033FC5002B2D522A1
:100B2A00EC30E7100FBF000C0EBE00080DBD00042C
:100B3A000BEB6014A2D5EB13FCED92E7FD2274FFD8
:100B4A00FCFDFEFF22E480F8A2D574FF13FC7D8031
:030B5A00E480EF45
:100B5D00F920E73624F950037907E4F42402FBE584
:100B6D0082158270021583DBF6E024FB501BE960D1
:100B7D0014E4F0E582158270021583E004F0B40AE6
:0D0B8D0008E4F0D9EE7401F00A22C2D5226E
:100B9A00ED33EC3392D5FA602AB4FF33EDC2E77B2A
:100BAA00FF60067A0B79BFE4227A0B79C820D50454
:100BBA007A0B79C3224E614E002B494E46002D49CD
:100BCA004E4600E47A08F0A3DAFC7B00740722C0E0
:100BDA0083C082ECC0E0EDC0E0EEC0E0EFC0E0EA26
:100BEA0075F010A4CAABF075F04DA42BFBE435F0F8
:100BFA00FCEA2410FAEB34C5FBEC34D9FCEDC2E76D
:100C0A00FF75F056A4F42411C5F0F434C58FF0A48E
:100C1A002AE5F03BE43CF020E714120CCFD0E0FFC9
:100C2A00D0E0FED0E0FDD0E0FC120A018014F4040A
:100C3A00120CCFD0E0FFD0E0FED0E0FDD0E0FC12F5
:100C4A0008F8D082D083E0FAEDD2E7CD33EC332432
:100C5A0082FBE4C3CF33CFCE33CECD33CD33DBF3F8
:100C6A007B0775F00A846004F0A31B0AE5F0F0A381
:100C7A008FF0740AA4FFACF08EF0740AA42CFEACB8
:100C8A00F050010C8DF0740AA42CFDE435F0F0A3A9
:050C9A00DBDE740722FF
:100C9F003F8000004120000042C80000447A00005D
:100CAF00461C400047C35000497424004B189680DF
:100CBF004CBEBC205A0E1BCA6753C21C749DC5AED6
:100CCF00FB60065407601C2323120CFDEB543860A5
:100CDF0009120CE9120CF81208F8ECF8EDF9EEFA1B
:100CEF00EFCB22EB120CF880F1543803241C900C3C
:100CFF009FFE93FC0EEE93FD0EEE930ECE93FF220E
:101460000212FCE493A3F8E493A34003F68001F294
:1014700008DFF48029E493A3F85407240CC8C3338D
:10148000C4540F4420C8834004F456800146F6DF5C
:10149000E4800B01020408102040809015C0E47E17
:1014A000019360BCA3FF543F30E509541FFEE49351
:1014B000A360010ECF54C025E060A840B8E493A318
:1014C000FAE493A3F8E493A3C8C582C8CAC583CA43
:1014D000F0A3C8C582C8CAC583CADFE9DEE780BEFB
:0116290000C0
:100D0F00BB010689828A83E0225002E722BBFE02E2
:090D1F00E32289828A83E4932215
:100D2800BB010CE58229F582E5833AF583E0225080
:100D380006E92582F8E622BBFE06E92582F8E222CA
:0D0D4800E58229F582E5833AF583E49322E4
:100D5500BB010689828A83F0225002F722BBFE017D
:020D6500F32277
:100D6700BC000BBE0029EF8DF084FFADF022E4CC70
:100D7700F875F008EF2FFFEE33FEEC33FCEE9DEC39
:100D8700984005FCEE9DFE0FD5F0E9E4CEFD22ED7F
:100D9700F8F5F0EE8420D21CFEADF075F008EF2FC9
:100DA700FFED33FD4007985006D5F0F222C398FDBA
:050DB7000FD5F0EA2257
:0E0DBC00C3E49FFFE49EFEE49DFDE49CFC2248
:0C0DCA00ECF0A3EDF0A3EEF0A3EFF0229C
:100DD600A8828583F0D083D082120DED120DED121C
:100DE6000DED120DEDE473E493A3C583C5F0C58341
:100DF600C8C582C8F0A3C583C5F0C583C8C582C867
:010E060022C9
:100E0700F8E0FBA3A3E0F925F0F0E5821582700274
:070E17001583E0FA38F02218
:090E1E00EBF0A3EAF0A3E9F022D5
:100E2700D083D082F8E4937012740193700DA3A35A
:100E370093F8740193F5828883E47374029368606E
:060E4700EFA3A3A380DF6E
:1016D500EFB40A07740D1216E0740A309811A89930
:1016E500B8130CC2983098FDA899C298B811F63075
:0716F50099FDC299F599224D
:100E4D00EF4E6012EF60010EEDBB010B89828A83BC
:100E5D00F0A3DFFCDEFA2289F05007F709DFFCA9C9
:0C0E6D00F022BBFEFCF309DFFCA9F02220
:00000001FF
