:1002E700B0B2BBD5B8A3D1B6005757572E4655580D
:1002F700554E4B4A2E434E00B5E7D1B93A0030313F
:0903070032333435363738390041
:0403D800020C000013
:10033300120344D2A11203441203441203441203CE
:010343004475
:0E034400E4FFFE0FBF00010EEF640A4E70F5DD
:010352002288
:060310008D807F017E00DC
:0A031600EF1FAC0670011E4C6012D0
:10032000E4F50BE50BC394FA50EC00000000050B5C
:0203300080F15A
:0103320022A8
:10038D00E4F580C2B5D2B6D2B47F01FE120316E5F4
:08039D0080339201C2B4A201F9
:0103A5002235
:10037300AD0712038D40FBC2B5C2B6C2B400001272
:0A0383000310D2B4120312C2B42218
:1002B7007E00CFCDCFCECCCE12018174052FF58233
:0802C70074033EF583E493FF8C
:1002CF00AD0712038D40FBD2B5C2B6C2B4120310F4
:0802DF00D2B4120312C2B422D2
:10025300D2B77F341203737F057E001203167F30FB
:100263001203737F057E001203167F0C1203737F44
:10027300057E001203167F011203737F057E0002C1
:02028300031660
:1003B900D2A0120333C2A0120338C2A1120344020D
:0203C9000344EB
:0D03CB00C2A0120333D2A012033E0203446D
:0201D600AD0773
:1001D800E4FCEDA804088002C333D8FC30E704D25D
:1001E800A08002C2A0120333C2A10CBC08E412030F
:1001F80044120344D2A0120344120344D2A11203AE
:100208003E30A004C2008002D200C2A11203440200
:0202180003449D
:10028500E4FDD2A0FC120344C2A1120338D2A1128C
:100295000344120344ED25E0FD30A0010D12034493
:1002A5001203440CBC08DEC2A1120344120344AF7E
:0102B5000543
:0102B6002225
:1003A600D2A0120344120344120333C2A11203441F
:0303B600020344FB
:10000300E4F508F5097F0AFE120316C2A6C2A71279
:1000130002537592FFE4F591FDFF120353E4FBEBEA
:100023009002E793FF60061202CF0B80F2E4FD7F9C
:1000330001120353E4FBEB9002F093FF60061202FC
:10004300CF0B80F2E4FD7F03120353E4FBEB90023A
:10005300FF93FF60061202CF0B80F2C290D291E4AD
:10006300F50A7F0312021A7508008F097F0A7E00C2
:10007300120316050AE50AC3941E40E6AE08AF094B
:100083007C007D1312016F8E088F097D037F03129D
:100093000353AE08AF097C037DE81202BFAE08AF7D
:1000A300097C037DE81201817F641202B7AE08AFB9
:1000B300097C007D641201817F0A1202B7AE08AF8A
:1000C300097C007D0A12018174052DF58274033CBD
:1000D3001202CA7F561202CFE4F50CF50D0200623C
:10035300EF70047F808013BF01047F90800CBF0285
:10036300047F888005BF03027F98EF2DFF0203738C
:02021A00AB0730
:10021C001203B97F901201D62000037F0022EB4419
:10022C0040FF1201D62000037F00221203B97F91F8
:10023C001201D62000037F0022120285AD071203A3
:06024C00A61203CBAF0572
:010252002289
:030000000200E318
:0C00E300787FE4F6D8FD75812002012A28
:10016F00EF8DF0A4A8F0CF8CF0A428CE8DF0A42EA4
:02017F00FE225E
:10018100BC000BBE0029EF8DF084FFADF022E4CC62
:10019100F875F008EF2FFFEE33FEEC33FCEE9DEC2B
:1001A100984005FCEE9DFE0FD5F0E9E4CEFD22ED71
:1001B100F8F5F0EE8420D21CFEADF075F008EF2FBB
:1001C100FFED33FD4007985006D5F0F222C398FDAC
:0501D1000FD5F0EA2249
:1000EF00020003E493A3F8E493A34003F68001F224
:1000FF0008DFF48029E493A3F85407240CC8C33312
:10010F00C4540F4420C8834004F456800146F6DFE0
:10011F00E4800B01020408102040809003D8E47E95
:10012F00019360BCA3FF543F30E509541FFEE493D5
:10013F00A360010ECF54C025E060A840B8E493A39C
:10014F00FAE493A3F8E493A3C8C582C8CAC583CAC7
:10015F00F0A3C8C582C8CAC583CADFE9DEE780BE7F
:0103DC000020
:00000001FF
