:03000000020C6788
:0C0C6700787FE4F6D8FD758146020CAEE3
:100DB7000A3DCAB5CAB1CEC2B6C83A000521FD0080
:100DC7000001001127303132333435363738396175
:060DD70062636465660022
:060DDE008D807F017E0004
:0A0DE400EF1FAC0670011E4C6012F8
:100DEE00E4F50EE50EC394FA50EC00000000050E7B
:020DFE0080F182
:010E000022CF
:100E9600E4F580C2B5D2B6D2B47F01FE120DE4E508
:080EA60080339200C2B4A200E7
:010EAE002221
:100E6200AD07120E9640FBC2B5C2B6C2B400001264
:0A0E72000DDED2B4120DE0C2B4226E
:090E0100120B5D74272FF8E6FFC7
:100E0A00AD07120E9640FBD2B5C2B6C2B4120DDEC1
:080E1A00D2B4120DE0C2B422B3
:100D5D00D2B77F34120E627F057E00120DE47F3014
:100D6D00120E627F057E00120DE47F0C120E627F63
:100D7D00057E00120DE47F01120E627F057E0002DA
:020D8D000DE473
:100E2200EF70047F808013BF01047F90800CBF02AB
:100E3200047F888005BF03027F98EF2DFF020E62B8
:0B0EAF00EF1FAC0670011E4C70F62215
:100D8F00E4FDD2A47F40FE120EAFC2A47F807E028C
:100D9F00120EAFD2A47F707E00120EAFA2A4E43366
:080DAF00FD7FA07E00020EAFE3
:100E4200E4FB7D08C2A4EBC313FBD2A430A403438A
:0F0E520003807F207E00120EAFDDE9AF037E002C
:010E6100226E
:020E7C00AD07C0
:100E7E007B08C2A4ED1392A47F287E00120EAFD27F
:070E8E00A4EDC313FDDBEB33
:010E9500223A
:100CF300E4FAFFFDFCF511F510F50FF50E120D8F5B
:100D03007FCC120E7C7F44120E7C120D8F7FCC128F
:100D13000E7C7FBE120E7C120E42AA07120E42AD4B
:100D230007EDFCEAFDE4120AA3E4FBFA7980783DBF
:100D33001208F88F118E108D0F8C0EE4FFFE7D20AC
:100D43007C41AB11AA10A90FA80E1208F8E4FBFA14
:090D5300F9783F120807120ADCCE
:010D5C002274
:100BC000E4FBFA120D5D120D8FE4FDFF120E22748C
:100BD0003D2BF8E6FF600A120E0A0BBB00010A80EB
:100BE000EE120CF38E088F097FF47E01120DE412D1
:100BF0000CF38E088F097D05E4FF120E22AE08AFBC
:100C0000097C007D64120E01AE08AF097C007D6492
:100C1000120B5D7E007F0ACFCDCFCECCCE120E015F
:100C20007F2E120E0AAE08AF097C007D0A120B5D02
:100C300074272DF8E6FF120E0A7F27120E0A7F4353
:100C4000120E0AAC08AD09E4120AA3E4FBFA7920FB
:100C50007841120A018F0D8E0C8D0B8C0A7F0A7E53
:070C600000120DE4020BE19C
:10080000020B48E86480F8E933E83360110460F0D3
:10081000ED33EC337009E8FCE9FDEAFEEBFF22045E
:1008200060DED3EB9FEA9EE99DE8C2E78CF0C2F759
:1008300095F0400CE8CCF8E9CDF9EACEFAEBCFFB25
:10084000120B1385D0F05804700320D5B3E8047060
:10085000075002B2D5020B5292D5EC0460F7E4CCFB
:10086000C0E0C398F8603B94186008400DD0E0FBEE
:10087000020B2AE4FBFAC9FC8028E830E406E4C94C
:10088000FBE4CAFCE830E305E4C9CACBFCE8540742
:100890006010F8C3E913F9EA13FAEB13FBEC13FC4D
:1008A000D8F130F52FC3E49CFCEF9BFFEE9AFEEDF0
:1008B00099FDD0E0FBEF4E4D4C701222DB03020B92
:1008C0004FEC2CFCEF33FFEE33FEED33FDED30E764
:1008D000EB020B2AEF2BFFEE3AFEED39FDD0E0FBE9
:1008E00050130BBB0003020B52ED13FDEE13FEEF92
:0808F00013FFEC13FC020B2ABC
:1008F800EC4D6011E8497017ED33EC3304600DE4FA
:10090800FCFFFEFD22E933E8330470F8020B4812BD
:100918000B1358046009E4CC2481500628500902BE
:100928000B52284003020B4FC0E0EB4A7044B980D9
:1009380006D0E0FB020B3EEF4E701CBD8008EBFFBB
:10094800EAFEE9FD80EBE98DF0A4FEE5F00209E19D
:10095800E9CDF9EAFEEBFFEF89F0A4FCE5F0CE89DA
:10096800F0A42EFFE435F0CD89F0A42DFEE435F097
:100978008067EF4E7005BD80D780C3EF8BF0A4ACC5
:10098800F0EE8BF0A42CFCE435F0F8EF8AF0A42C00
:10099800E5F038FCE433CB8DF0A42CFCE5F03BF813
:1009A800EE8AF0A42CFCE5F038F8E433CF89F0A403
:1009B8002CFCE5F038CF3400CE89F0A42FFFE5F009
:1009C8003EFEE433C98DF0A42EFEE5F039CD8AF061
:1009D800A42FFFE5F03EFEE43DFD33D0E0FB5007D9
:1009E8000BBB000F020B52EC2CFCEF33FFEE33FE77
:0609F800ED33FD020B2AA5
:1009FE00020B52EC5D046005E859047003020B48CB
:100A0E00120B13580460F6EC4860F2EC7004FDFE15
:100A1E00FF22C860DB2481C85009C39860025006CB
:100A2E00020B4F9850CAF582E9294B4A7005AB82EA
:100A3E00020B3E75F0007C1A7880C3EF9BEE9AEDA8
:100A4E0099400DC3EF9BFFEE9AFEED99FDE842F043
:100A5E00DC23ACF0D0E0FFD0E0FED0E0FDAB822096
:100A6E00E7101BEB60BAEC2CFCEF33FFEE33FEED20
:100A7E0033FD020B2AE803F830E705C0F075F000ED
:100A8E00EF2FFFEE33FEED33FD40B830E7C280AA04
:100A9E0075F020800E75F010800575F0087D007ED3
:100AAE00007F003392D530D503120BB2EC334010D9
:100ABE00EF33FFEE33FEED33FDEC33FCD5F0ED22DC
:0E0ACE00E5F0247EA2D513CC92E7CDCEFF2218
:100ADC00EDD2E7CD33EC3392D524814006E4FFFE12
:100AEC00FDFC22FCE4CFCECDCC24E0501174FF8071
:100AFC00EDC3CC13CCCD13CDCE13CECF13CF04700E
:070B0C00F030D5DE020BB250
:100B1300E9D2E7C933E833F892D5EDD2E7CD33EC28
:070B230033FC5002B2D522A1
:100B2A00EC30E7100FBF000C0EBE00080DBD00042C
:100B3A000BEB6014A2D5EB13FCED92E7FD2274FFD8
:100B4A00FCFDFEFF22E480F8A2D574FF13FC7D8031
:030B5A00E480EF45
:100C7300020BC0E493A3F8E493A34003F68001F2CC
:100C830008DFF48029E493A3F85407240CC8C33382
:100C9300C4540F4420C8834004F456800146F6DF51
:100CA300E4800B0102040810204080900DB7E47E1D
:100CB300019360BCA3FF543F30E509541FFEE49346
:100CC300A360010ECF54C025E060A840B8E493A30D
:100CD300FAE493A3F8E493A3C8C582C8CAC583CA38
:100CE300F0A3C8C582C8CAC583CADFE9DEE780BEF0
:010DDD000015
:100B5D00BC000BBE0029EF8DF084FFADF022E4CC7C
:100B6D00F875F008EF2FFFEE33FEEC33FCEE9DEC45
:100B7D00984005FCEE9DFE0FD5F0E9E4CEFD22ED8B
:100B8D00F8F5F0EE8420D21CFEADF075F008EF2FD5
:100B9D00FFED33FD4007985006D5F0F222C398FDC6
:050BAD000FD5F0EA2263
:0E0BB200C3E49FFFE49EFEE49DFDE49CFC2254
:00000001FF
