:030000000209935F
:0C099300787FE4F6D8FD7581200209DAB7
:0B0B9100D6D8C1BFCEAAA3BA006700EF
:070B9C000508303030300085
:060ADB008D807F017E000A
:0A0AE100EF1FAC0670011E4C6012FE
:100AEB00E4F515E515C394FA50EC0000000005156C
:020AFB0080F188
:010AFD0022D6
:100B5400E4F580C2B5D2B6D2B47F01FE120AE1E553
:080B640080339200C2B4A2002C
:010B6C002266
:100B3A00AD07120B5440FBC2B5C2B6C2B4000012D4
:0A0B4A000ADBD2B4120ADDC2B422A5
:100B6D00AD07120B5440FBD2B5C2B6C2B4120ADBAC
:080B7D00D2B4120ADDC2B42259
:100AA900D2B77F34120B3A7F057E00120AE17F30FC
:100AB900120B3A7F057E00120AE17F0C120B3A7F76
:100AC900057E00120AE17F01120B3A7F057E0002C2
:020AD9000AE130
:100AFE00EF70047F808013BF01047F90800CBF02D3
:100B0E00047F888005BF03027F98EF2DFF020B3A0A
:030BA4000000222C
:100A6800D291120BA4C2907F007E007D007C00D240
:100A7800B42091FDC2B4E4FBD29078011208CEC232
:100A88009030910DEF2401FFE43EFEE43DFDE43C8F
:100A9800FC0BBB18E3D290ED6480FD120BA4C2904E
:010AA800222B
:0C0B8500120A688F108E0F8D0E8C0D224E
:1008E100120A688F148E138D128C11C3E5149510A2
:1008F100F514E513950FF513E512950EF512E511B3
:10090100950DF511AF14AE13AD12FCE47BAE7A0177
:10091100F9F812083C8F148E138D128C11E47BE8C8
:100921007A03F9F812083CEF2430F508E47BE87A01
:1009310003F9F8AF14AE13AD12AC1112083CAC00C0
:10094100AD01AE02AF03E47B64FAF9F812083CEFA3
:100951002430F509E47B64FAF9F8AF14AE13AD1253
:10096100AC1112083CAC00AD01AE02AF03E47B0A4E
:10097100FAF9F812083CEF2430F50AE47B0AFAF997
:10098100F8AF14AE13AD12AC1112083CEB2430F5E4
:020991000B2237
:100A1F00C2A6C2A77F01120B3A7F0A7E00120AE11B
:100A2F00E4FDFF120AFEE4FBEB900B9193FF120B18
:100A3F006D0BBB09F37D04E4FF120AFEAF08120B26
:100A4F006DAF09120B6DAF0A120B6DAF0B120B6D61
:090A5F00900B9AE493FF020B6D69
:100B1E00120B85120AA97F647E00120AE11208E107
:0C0B2E00120A1F7F057E00120AE180F110
:10099F00020B1EE493A3F8E493A34003F68001F245
:1009AF0008DFF48029E493A3F85407240CC8C33359
:1009BF00C4540F4420C8834004F456800146F6DF28
:1009CF00E4800B0102040810204080900B9CE47E11
:1009DF00019360BCA3FF543F30E509541FFEE4931D
:1009EF00A360010ECF54C025E060A840B8E493A3E4
:1009FF00FAE493A3F8E493A3C8C582C8CAC583CA0F
:100A0F00F0A3C8C582C8CAC583CADFE9DEE780BEC6
:010BA3000051
:1008000075F008758200EF2FFFEE33FECD33CDCCAF
:1008100033CCC58233C5829BED9AEC99E582984032
:100820000CF582EE9BFEED9AFDEC99FC0FD5F0D60F
:10083000E4CEFBE4CDFAE4CCF9A88222B800C1B939
:100840000059BA002DEC8BF084CFCECDFCE5F0CB77
:10085000F97818EF2FFFEE33FEED33FDEC33FCEBB0
:1008600033FB10D703994004EB99FB0FD8E5E4F96B
:10087000FA227818EF2FFFEE33FEED33FDEC33FC58
:10088000C933C910D7059BE99A4007EC9BFCE99A4C
:10089000F90FD8E0E4C9FAE4CCFB2275F010EF2F91
:1008A000FFEE33FEED33FDCC33CCC833C810D70791
:1008B0009BEC9AE899400AED9BFDEC9AFCE899F8CC
:0E08C0000FD5F0DAE4CDFBE4CCFAE4C8F9225F
:1008CE00E8600FEFC333FFEE33FEED33FDEC33FC88
:0308DE00D8F1222C
:00000001FF
