:03000000020901F1
:0C090100787FE4F6D8FD75812002080024
:0E08F300D3D0C8CB3A5900CEDEC8CB3A4E0067
:0F0865008B807F017E00120874D2B47F017E0069
:10087400D3EF9400EE940040147D667C02ED1D706D
:0D088400011CED4C70F7EF1F70E61E80E3C5
:010891002244
:1008B200E4F580C2B5D2B6D2B47F01FE120874E567
:0808C20080339200C2B4A200D1
:0108CA00220B
:1008CB00AB071208B240FBC2B5C2B6C2B4000012ED
:0508DB000865C2B42213
:1008E000AB071208B240FBD2B5C2B6C2B41208655B
:0308F000C2B4226D
:10083300D2B77F341208CB7F057E001208747F3055
:100843001208CB7F057E001208747F0C1208CB7F41
:10085300057E001208747F011208CB7F057E00021B
:02086300087417
:10089200EF70047F808013BF01047F90800CBF0241
:1008A200047F888005BF03027F98EF2DFF0208CBEB
:10080000E4FA1208337FDC7E05120874E4FDFF125F
:100810000892E4FA30900EEA9008F393FF60ED122C
:1008200008E00A80F2EA9008FA93FF60DF1208E01D
:030830000A80F249
:00000001FF
