:03000000020900F2
:0C090000787FE4F6D8FD75812002080025
:09090C00D3D0C8CB3A00594E00CB
:0F0872008B807F017E00120881D2B47F017E004F
:10088100D3EF9400EE940040147D667C02ED1D7060
:0D089100011CED4C70F7EF1F70E61E80E3B8
:01089E002237
:1008BF00E4F580C2B5D2B6D2B47F01FE120881E54D
:0808CF0080339200C2B4A200C4
:0108D70022FE
:1008D800AB071208BF40FBC2B5C2B6C2B4000012D3
:0508E8000872C2B422F9
:1008ED00AB071208BF40FBD2B5C2B6C2B412087234
:0308FD00C2B42260
:10084000D2B77F341208D87F057E001208817F302E
:100850001208D87F057E001208817F0C1208D87F0D
:10086000057E001208817F011208D87F057E0002F4
:020870000881FD
:10089F00EF70047F808013BF01047F90800CBF0234
:1008AF00047F888005BF03027F98EF2DFF0208D8D1
:10080000E4FA1208407FDC7E05120881E4FDFF1245
:10081000089FEA90090C93FF60061208ED0A80F227
:100820007D03E4FF12089F30900B900912E493FFC0
:100830001208ED80EB900913E493FF1208ED80E0BD
:00000001FF
